:020000020000FC
:040000000C942C0030
:040038000C945A00CA
:100054000C94500000E400937C000FEE00937A00AF
:100064000DE304B905B900E007B900E90AB95F98DE
:100074005C9802E004BD04E005BD01E007BD02E0B8
:1000840000936E00002710E0C0E0D1E078940000F7
:100094000E9420010E94E2000000F9CF4FB7509166
:1000A400780000FD1395110F009179004FBF18954A
:1000B4005FB703C099275FBF189510E10E2F0F7724
:1000C4000F7B0F7D0F7E21C0939510E20E2F0E7FC4
:1000D4000D7F0B7F077F069506950695069515C03F
:1000E400939510E40F2F0F770F7B0F7D0F7E0DC0BC
:1000F400939510E80F2F0E7F0D7F0B7F077F0695DA
:1001040006950695069501C0D5CF1CC00BC0012FDE
:1001140009C05C9A5C989030B9F2913009F392303E
:1001240039F3F2CF38E05F98069510F0289801C0B3
:10013400289A5F9A3A95B9F7703011F47395E7CF1E
:100144007727E7CF0130F1F00230F1F00330F1F01E
:100154000430F1F00530F1F00630F1F00730F1F041
:100164000830F1F00930F1F00A30F1F00B30F1F021
:100174000C30F1F00D30F1F00E30F1F00F30F1F001
:1001840003E0C4CF0FE9C2CF05E2C0CF0DE0BECF7C
:1001940009E9BCCF09E4BACF01E4B8CF0FE1B6CF87
:1001A40001E0B4CF09E1B2CF01E1B0CF01ECAECFB1
:1001B40003E6ACCF05E8AACF01E6A8CF01E7A6CFB6
:1001C400822F782F89937F777F7E7B7F7D7F8894B2
:1001D400E70F08F0F3950895212F662723FD639513
:1001E40025FD639527FD6395603029F0623019F091
:1001F4002160662703C02D7F662700C023FD639519
:1002040026FD639527FD6395603029F0623019F06F
:100214002460662703C02B7F662700C025FD6395F5
:1002240026FD639527FD6395603029F0623019F04F
:1002340020612F7708952F7E2F770895B395F1F7D6
:0A024400A395F1F7AA27BB27089540
:00000001FF
