:020000020000FC
:040000000C942C0030
:040038000C945100D3
:100054000C94470000E400937C000FEE00937A00B8
:100064000DE304B905B900E007B900E90AB95F98DE
:100074005C98002710E0C0E0D1E0789400000E9472
:100084000F010E94D9000000F9CF4FB7009178000A
:1000940000FD1395110F009179004FBF18955FB7BC
:1000A40003C099275FBF189510E10E2F087F097FC1
:1000B4000A7F0B7F21C0939510E20E2F0F7F0E7FD6
:1000C4000D7F0C7F069506950695069515C09395AC
:1000D40010E40F2F087F097F0A7F0B7F0DC0E39583
:1000E40010E80F2F0F7F0E7F0D7F0C7F069506956E
:1000F4000695069501C0D5CF1CC00BC0012F09C0C1
:100104005C9A5C989030B9F2913009F3923039F3EB
:10011400F2CF28E05F98069510F0289801C0289A3D
:100124005F9A2A95B9F7703011F47395E7CF772762
:10013400E7CF0130F1F00230F1F00330F1F0043098
:10014400F1F00530F1F00630F1F00730F1F008304D
:10015400F1F00930F1F00A30F1F00B30F1F00C302D
:10016400F1F00D30F1F00E30F1F00F30F1F003E06A
:10017400C4CF0FE9C2CF05E2C0CF0DE0BECF09E97D
:10018400BCCF09E4BACF01E4B8CF0FE1B6CF01E0A8
:10019400B4CF09E1B2CF01E1B0CF01ECAECF03E6B9
:1001A400ACCF05E8AACF01E6A8CF01E7A6CF022F7E
:1001B400E02F09930895212F662723FD639525FDDC
:1001C400639527FD6395603029F0623019F0216052
:1001D400662703C02E7F662700C023FD639526FD96
:1001E400639527FD6395603029F0623019F0226031
:1001F400662703C02D7F662700C025FD639526FD75
:10020400639527FD6395603029F0623019F024600E
:10021400287F08952B7F287F08954395F1F7539500
:10022400F1F7552744270895777F7B7F7D7F7E7F75
:04023400E70FF81FB9
:00000001FF
